S01400004B69746368656E416C61726D2E737265635D
S11300000C943E000C945B000C945B000C945B001D
S11300100C945B000C94E6020C945B000C945B0063
S11300200C945B000C945B000C945B000C947502C4
S11300300C945B000C945B000C945B000C945B00D0
S11300400C945B000C945B000C945B000C945B00C0
S11300500C945B000C945B000C945B000C945B00B0
S11300600C945B000C945B00BA00E3000C013501B6
S11300705E018701B001D90102022B0211241FBEC7
S1130080CFEFD4E0DEBFCDBF11E0A0E0B1E0E6E504
S1130090FCE002C005900D92A635B107D9F721E026
S11300A0A6E5B1E001C01D92A036B207E1F70E94B7
S11300B011040C9429060C940000FC01408121E0F9
S11300C030E002C0220F331F6A95E2F7242B20830D
S11300D00895FC01908121E030E002C0220F331F1B
S11300E06A95E2F72095292320830895CF93DF931F
S11300F0CDB7DEB7C654D1090FB6F894DEBF0FBE34
S1130100CDBF26E4E0E0F1E0DE01119601900D920E
S11301102A95E1F7462F50E04A30510508F09EC178
S1130120FA01EC5CFF4F0C942306E1E0F0E0EC0FE5
S1130130FD1FE20FF11D308131110EC0FC01308131
S113014041E050E0022E02C0440F551F0A94E2F72A
S11301504095432340830CC0FC01308141E050E0D2
S1130160022E02C0440F551F0A94E2F7432B40832A
S11301702F5F01C020E02730C0F270C1E8E0F0E05A
S1130180EC0FFD1FE20FF11D308131110EC0FC0197
S1130190308141E050E0022E02C0440F551F0A9402
S11301A0E2F74095432340830CC0FC01308141E0D9
S11301B050E0022E02C0440F551F0A94E2F7432B6D
S11301C040832F5F01C020E02730C0F247C1EFE039
S11301D0F0E0EC0FFD1FE20FF11D308131110EC074
S11301E0FC01308141E050E0022E02C0440F551F53
S11301F00A94E2F74095432340830CC0FC0130810C
S113020041E050E0022E02C0440F551F0A94E2F769
S1130210432B40832F5F01C020E02730C0F21EC172
S1130220E6E1F0E0EC0FFD1FE20FF11D308131112A
S11302300EC0FC01308141E050E0022E02C0440FA8
S1130240551F0A94E2F74095432340830CC0FC01F8
S1130250308141E050E0022E02C0440F551F0A9441
S1130260E2F7432B40832F5F01C020E02730C0F228
S1130270F5C0EDE1F0E0EC0FFD1FE20FF11D308160
S113028031110EC0FC01308141E050E0022E02C069
S1130290440F551F0A94E2F74095432340830CC052
S11302A0FC01308141E050E0022E02C0440F551F92
S11302B00A94E2F7432B40832F5F01C020E02730EC
S11302C0C0F2CCC0E4E2F0E0EC0FFD1FE20FF11D40
S11302D0308131110EC0FC01308141E050E0022E2A
S11302E002C0440F551F0A94E2F74095432340830C
S11302F00CC0FC01308141E050E0022E02C0440FEA
S1130300551F0A94E2F7432B40832F5F01C020E07E
S11303102730C0F2A3C0EBE2F0E0EC0FFD1FE20FC8
S1130320F11D308131110EC0FC01308141E050E0FB
S1130330022E02C0440F551F0A94E2F7409543234E
S113034040830CC0FC01308141E050E0022E02C029
S1130350440F551F0A94E2F7432B40832F5F01C0DB
S113036020E02730C0F27AC0E2E3F0E0EC0FFD1F9A
S1130370E20FF11D308131110EC0FC01308141E0EA
S113038050E0022E02C0440F551F0A94E2F7409534
S1130390432340830CC0FC01308141E050E0022E35
S11303A002C0440F551F0A94E2F7432B40832F5F8A
S11303B001C020E02730C0F251C0E9E3F0E0EC0FC7
S11303C0FD1FE20FF11D308131110EC0FC0130819F
S11303D041E050E0022E02C0440F551F0A94E2F798
S11303E04095432340830CC0FC01308141E050E040
S11303F0022E02C0440F551F0A94E2F7432B408398
S11304002F5F01C020E02730C0F228C0E0E4F0E014
S1130410EC0FFD1FE20FF11D308131110EC0FC0104
S1130420308141E050E0022E02C0440F551F0A946F
S1130430E2F74095432340830CC0FC01308141E046
S113044050E0022E02C0440F551F0A94E2F7432BDA
S113045040832F5F01C020E02730C0F2CA5BDF4F2A
S11304600FB6F894DEBF0FBECDBFDF91CF910895D4
S1130470FC0190E00CC0808121E030E0092E02C034
S1130480220F331F0A94E2F7282B20839F5F9730B3
S113049090F308951092C5008CE08093C400E0ECC2
S11304A0F0E080818260808388E18093C10086E0EF
S11304B08093C20008959091C00095FFFCCF809373
S11304C0C60008950F931F93CF938C01C0E003C01F
S11304D00E945B02CF5FF801EC0FF11D8081811156
S11304E0F7CFCF911F910F9108951F920F920FB6DE
S11304F00F9211242F933F934F935F936F937F93A6
S11305008F939F93AF93BF93EF93FF9380915C017D
S113051090915D01019690935D0180935C0120911F
S11305205B012223F1F03091570180915601082E8E
S1130530000C990B830F911D37FD9A953091590149
S1130540830F911D37FD9A9540915801840F911D99
S113055047FD9A951816190624F431503093590121
S113056024C080915C0190915D01CC97F1F421113C
S11305701CC080915A01811118C085E290E00E944C
S1130580380288B1806188B910925D0110925C01D3
S113059081E080935E0183B7817F846083BFF89498
S11305A083B7816083BF78948895FF91EF91BF9161
S11305B0AF919F918F917F916F915F914F913F91F7
S11305C02F910F900FBE0F901F9018951F920F92AE
S11305D00FB60F9211242F933F934F935F936F9312
S11305E07F938F939F93AF93BF93EF93FF93109257
S11305F05F0186E491E00E946202FF91EF91BF9156
S1130600AF919F918F917F916F915F914F913F91A6
S11306102F910F900FBE0F901F901895DC01FB01D6
S11306208C918A303CF09081953021F09F5F9083CB
S11306301C9207C088232CF480818150808389E038
S11306408C938081853031F49C919A301CF0108217
S11306501C920895882324F485E0808389E08C9398
S11306600895CF93DF93DC01FB018C918A303CF039
S11306709081953021F09F5F90831C9207C088235E
S11306802CF480818150808389E08C938081853033
S113069051F49C919A303CF0EA0188818F5F888301
S11306A010821C920AC0882344F4EA018881815094
S11306B0888385E0808389E08C93DF91CF910895CE
S11306C0EF92FF920F931F93CF93DF938C01EB0173
S11306D0790188B1846088B9FA01608185E290E08B
S11306E00E94760089EF90E00197F1F700C00000C6
S11306F085E290E00E94380288B18B7F88B988B186
S1130700886088B9F701608185E290E00E947600F4
S113071089EF90E00197F1F700C0000085E290E0D6
S11307200E94380288B1877F88B988B1816088B90E
S1130730F801608185E290E00E94760089EF90E004
S11307400197F1F700C0000085E290E00E943802B2
S113075088B18E7F88B988B1826088B9688185E262
S113076090E00E94760088B18F7E88B9E9EFF0E0CE
S11307703197F1F700C0000088B1806188B985E243
S113078090E00E94380288B18D7F88B9DF91CF91C3
S11307901F910F91FF90EF900895FC019081FB0150
S11307A08081981751F091110AC089B1807498130F
S11307B008C0981741F083E007C083E005C083E0D8
S11307C003C081E001C082E0FB019083089599B1E8
S11307D0892F807295FD0AC0E3ECF9E03197F1F7B7
S11307E000C000004D9903C081E0089580E00895A1
S11307F0E1E8F0E0808188608083A8E8B0E08D9132
S11308009C911197806D936011969C938E93AFE6A3
S1130810B0E08C9182608C93789480818560808331
S11308200895CF93DF9300D0CDB7DEB7E8E6F0E0CC
S1130830808184608083EDE6F0E080818062808343
S11308400E94F8030E944A0220E00CC034B181E007
S113085090E0022E02C0880F991F0A94E2F7832BBE
S113086084B92F5F273090F387B1816087B987B14E
S1130870826087B987B1846087B987B1886087B996
S113088087B1806187B988B1806188B987B1806296
S113089087B98AB184608AB98AB18F7B8AB98AB1EF
S11308A08F778AB98AB18F7D8AB989B180788A8332
S11308B00E94E703882309F4E7C080915E01811157
S11308C0E3C080915A018F5F80935A012FE986E833
S11308D091E0215080409040E1F700C00000CAC080
S11308E088B1816088B96091560185E290E00E94E8
S11308F0760089EF90E00197F1F700C0000085E2EF
S113090090E00E94380288B18E7F88B988B18260F5
S113091088B96091570185E290E00E94760088B121
S11309208F7E88B989EF90E00197F1F700C000004D
S113093088B1806188B985E290E00E94380288B16C
S11309408D7F88B989B180788983BE016E5F7F4FBE
S1130950CE0101960E94CD03813061F4809157014C
S11309608F5F8093570166E571E087E591E00E940F
S11309700E030DC0823059F4809157018150809349
S1130980570166E571E087E591E00E940E030E943D
S1130990E703882309F46EC080915A018F5F809326
S11309A05A019FE926E881E0915020408040E1F718
S11309B000C000005AC088B1846088B960915801B1
S11309C085E290E00E94760089EF90E00197F1F7CC
S11309D000C0000085E290E00E94380288B18B7F5D
S11309E088B988B1886088B96091590185E290E03E
S11309F00E94760089EF90E00197F1F700C00000B3
S1130A0085E290E00E94380288B1877F88B989B175
S1130A1080788983BE016E5F7F4FCE0101960E946C
S1130A20CD03813061F4809159018F5F8093590126
S1130A3068E571E089E591E00E940E030DC0823003
S1130A4059F48091590181508093590168E571E00E
S1130A5089E591E00E940E030E94E703882329F0B0
S1130A6080915A018F5F80935A0180915A0182309C
S1130A7009F4A1CF80915A01813009F431CF81E08A
S1130A8080935B0110925A0183EC99E00197F1F78E
S1130A9000C0000064C029E531E048E551E067E5A5
S1130AA071E086E591E00E94600347E551E068E566
S1130AB071E089E591E00E94310366E571E087E524
S1130AC091E00E940E032091560180915701082E57
S1130AD0000C990B820F911D27FD9A9520915801C6
S1130AE0820F911D27FD9A9520915901820F911D26
S1130AF027FD9A95892B99F581E080935F011CC0AD
S1130B008BB184608BB965E088E290E00E945D005F
S1130B108FE493EC0197F1F700C000008BB18B7F59
S1130B208BB965E088E290E00E9469008FE493EC61
S1130B300197F1F700C0000080915F018111E0CFBF
S1130B4010925D0110925C0110925B019FEB24ED09
S1130B5081E0915020408040E1F700C00000809186
S1130B605B01811198CF8111A3CE80915E0188230E
S1130B7059F09FE926E881E0915020408040E1F758
S1130B8000C0000010925E0188B1846088B9609151
S1130B90580185E290E00E94760089EF90E0019789
S1130BA0F1F700C0000085E290E00E94380288B1AD
S1130BB08B7F88B988B1886088B96091590185E2D2
S1130BC090E00E94760089EF90E00197F1F700C071
S1130BD0000085E290E00E94380288B1877F88B9DE
S1130BE088B1816088B96091560185E290E00E94E5
S1130BF0760089EF90E00197F1F700C0000085E2EC
S1130C0090E00E94380288B18E7F88B988B18260F2
S1130C1088B96091570185E290E00E94760088B11E
S1130C208F7E88B989EF90E00197F1F700C000004A
S1130C3088B1806188B985E290E00E94380288B169
S1130C408D7F88B935CEEE0FFF1F0590F491E02D0E
S1090C500994F894FFCFA3
S1130C560000000000000101000001010101000084
S1130C660100000100000000000101000100000174
S1130C760100000001000001000000010000000066
S1130C860000000001010101000000000000000056
S1130C9600000101000077616B696E6720757021A1
S1090CA62121200D0A00CB
S9030000FC
