:100000000C9435000C945D000C945D000C945F0022
:100010000C945D000C945D000C945D000C945D00EC
:100020000C945D000C945D000C945D000C949100A8
:100030000C945D000C945D000C945D000C945D00CC
:100040000C945D000C945D000C945D000C945D00BC
:100050000C945D000C945D000C945D000C945D00AC
:100060000C945D000C945D000C0A11241FBECFEFB0
:10007000D4E0DEBFCDBF11E0A0E0B1E0E4EEF4E1FA
:1000800002C005900D92AC34B107D9F721E0ACE481
:10009000B1E001C01D92AE3FB207E1F710E0C5E349
:1000A000D0E004C02197FE010E946A0AC433D10740
:1000B000C9F70E9443080C94700A0C9400001F9228
:1000C0000F920FB60F9211242F933F934F935F938C
:1000D0006F937F938F939F93AF93BF93EF93FF9310
:1000E0008CE491E00E946202811108C090910001AD
:1000F000992321F0109204011092030180930001D2
:10010000FF91EF91BF91AF919F918F917F916F91EF
:100110005F914F913F912F910F900FBE0F901F90C5
:1001200018951F920F920FB60F9211242F933F93A1
:100130004F935F936F937F938F939F93AF93BF93EF
:10014000EF93FF938091F8019091F90101969093BC
:10015000F9018093F8018091F6019091F7018130C7
:100160009105F9F0892B61F48091F4019091F501EA
:10017000892B31F48091F8019091F901CC9779F1B4
:10018000FF91EF91BF91AF919F918F917F916F916F
:100190005F914F913F912F910F900FBE0F901F9045
:1001A00018952091FD013091FB018091FA01082EF4
:1001B000000C990B830F911D37FD9A95820F911DAD
:1001C00027FD9A953091FC01830F911D37FD9A957B
:1001D00018161906ACF621502093FD01D1CF1092CC
:1001E000F9011092F8018DE591E00E94260883B78D
:1001F000817F846083BFF89483B7816083BF7894E4
:100200008895BECFDC01FB018C9190818A306CF027
:100210009530A9F09F5F90831C92908197FF0EC04C
:1002200085E0808389E08C93089587FFF7CF915014
:10023000908389E08C93908197FDF2CF089510828E
:100240001C920895CF93DF93DC01FB018C91908188
:100250008A309CF09530D9F09F5F90831C929081FA
:1002600097FF08C0EA0188818150888385E08083F8
:1002700089E08C93DF91CF91089587FFF1CF915062
:10028000908389E08C93908197FDECCFF3CFEA01C6
:1002900088818F5F888310821C92DF91CF910895AF
:1002A00070E060E08DE591E00E9461046091FA01E8
:1002B0008DE591E00E94650689EF90E00197F1F7E6
:1002C00000C000008DE591E00E94260861E070E02A
:1002D0008DE591E00E94610470E060E08DE591E0C1
:1002E0000E94370670E060E08DE591E00E94C50451
:1002F0006091FB018DE591E00E94650689EF90E039
:100300000197F1F700C000008DE591E00E942608FA
:1003100061E070E08DE591E00E94C50461E070E06D
:100320008DE591E00C94370670E060E08DE591E09A
:100330000E9429056091FC018DE591E00E9465060F
:1003400089EF90E00197F1F700C000008DE591E0A2
:100350000E94260861E070E08DE591E00E94290589
:1003600070E060E08DE591E00E948D056091FD01F7
:100370008DE591E00E94650689EF90E00197F1F725
:1003800000C000008DE591E00E94260861E070E069
:100390008DE591E00C948D05E1E8F0E080818860C6
:1003A000808380ED93E09093890080938800AFE68E
:1003B000B0E08C9182608C9378948081856080839A
:1003C0000895E8E6F0E0808181608083EBE6F0E06C
:1003D0008081846080830895CF92EF92FF920F9383
:1003E000FC011182738362834483308727830187F2
:1003F000F586E486C6860F91FF90EF90CF90089522
:10040000FC01A281B3814C91248181E090E0BC0188
:1004100002C0660F771F2A95E2F79B0120952423DF
:100420002C93A781B0854C912185BC0102C0660F39
:10043000771F2A95E2F79B01209524232C93A4850E
:10044000B5852C91368501C0880F3A95EAF78095DD
:1004500082238C93828193810197968385838485FF
:1004600095850197908B87878781908501979387E2
:1004700082870895FC01A785B0892C91368581E09B
:1004800090E0AC0101C0440F3A95EAF724232083A1
:100490003181231799F0211111C0A285B3853C91B8
:1004A000418501C0880F4A95EAF7382381E090E042
:1004B00011F02183089580E02183089582E090E087
:1004C00021830895FC01A581B6812C91348181E0BE
:1004D00090E001C0880F3A95EAF7822308952F92A1
:1004E0003F924F925F926F927F928F929F92AF92C4
:1004F000BF92CF92DF92EF92FF920F931F93CF9311
:10050000DF9300D0CDB7DEB7722FBE2C5F88288D69
:10051000398D4A8CEB8CFC8C2DA43EA4E6E47E2E17
:10052000E5E0F1E0DC0101900D927A94E1F7FC0145
:10053000EA5BFF4F6083319651834083349670832A
:100540003196118300833496B0823196D182C08275
:100550003496A08231969182808234965082319670
:1005600031832083349640823196F182E082349642
:10057000AD8DA0833196AE8DBF8DB183A0833496AF
:10058000A8A1A0833196A9A1BAA1B183A083349672
:10059000ABA1A0833196ACA1BDA1B183A083349659
:1005A000AEA1A0833196AFA1B8A5B183A083349644
:1005B000A9A5A0833196AAA5BBA5B183A083349633
:1005C000ACA5A0833196318220823A01BFEF6B1A2D
:1005D0007B0AF597718260820F5F1F4F35961183FA
:1005E0000083EFEFCE1ADE0AFC01ED5AFF4FD182F5
:1005F000C082FFEF8F1A9F0AFC01E85AFF4F9182D9
:100600008082A9014F5F5F4F5A834983359651839A
:100610004083F70131969C012E593F4FD901ED934C
:10062000FC934E8D5F8D4F5F5F4F2B5F3F4FD90126
:100630004D935C937C01BCE6EB0EF11C29A13AA121
:100640002F5F3F4FD7012D933C937C01B1E7EB0E19
:10065000F11C2CA13DA12F5F3F4FD7012D933C935F
:100660007C01B6E7EB0EF11C2FA138A52F5F3F4FA1
:10067000D7012D933C937C01BBE7EB0EF11C2AA51F
:100680003BA52F5F3F4FD7012D933C937C01B0E8F2
:10069000EB0EF11C91012F5F3F4FD7012D933C933F
:1006A0009C012E573F4FD9016D927C922E5F3F4F98
:1006B000D9010D931C932E5F3F4FD901CD92DC924F
:1006C0002E5F3F4FD9018D929C922E5F3F4F098143
:1006D0001A81D90111961C930E931296ED93FC93F7
:1006E000FC01E257FF4F518340833296608331967D
:1006F00070833196B0823196A082319650823196C5
:1007000040828A569F4F0D8DDC010C930F900F9005
:10071000DF91CF911F910F91FF90EF90DF90CF90DD
:10072000BF90AF909F908F907F906F905F904F9011
:100730003F902F900895FC01E95BFF4F0190F081FD
:10074000E02D4081DC01AA5BBF4F5C9121E030E0ED
:10075000B90101C0660F5A95EAF7462B4083FC01A8
:10076000E45BFF4F0190F081E02D408115965C9194
:10077000B90101C0660F5A95EAF7462B4083FC0188
:10078000EF5AFF4F0190F081E02D408115965C916A
:10079000B90101C0660F5A95EAF7462B4083FC0168
:1007A000EA5AFF4F0190F081E02D408115965C914F
:1007B000B90101C0660F5A95EAF7462B4083FC0148
:1007C000E55AFF4F0190F081E02D408115965C9134
:1007D000B90101C0660F5A95EAF7462B4083FC0128
:1007E000E05AFF4F0190F081E02D408115965C9119
:1007F000B90101C0660F5A95EAF7462B4083FC0108
:10080000EB59FF4F0190F081E02D408115965C91EE
:10081000B90101C0660F5A95EAF7462B4083FC01E7
:10082000E659FF4F0190F081E02D408115965C91D3
:10083000B90101C0660F5A95EAF7462B4083FC01C7
:10084000E159FF4F0190F081E02D408115965C91B8
:10085000B90101C0660F5A95EAF7462B4083FC01A7
:10086000EC58FF4F0190F081E02D408115965C918E
:10087000B90101C0660F5A95EAF7462B4083FC0187
:10088000E758FF4F0190F081E02D408115965C9173
:10089000B90101C0660F5A95EAF7462B4083FC0167
:1008A000E258FF4F0190F081E02D408183589F4F27
:1008B000DC018C9101C0220F8A95EAF7242B20835A
:1008C00008956115710509F44BC061307105B1F1EE
:1008D000FC01EA58FF4F0190F081E02D4081DC01DE
:1008E000AD58BF4F5C9121E030E0B90101C0660F07
:1008F0005A95EAF7462B4083FC01E558FF4F0190DB
:10090000F081E02D408115965C91B90101C0660F20
:100910005A95EAF7462B4083FC01E058FF4F0190BF
:10092000F081E02D408183589F4FDC018C9101C004
:10093000220F8A95EAF7242B20830895FC01EF58B3
:10094000FF4F0190F081E02D2081DC01A259BF4FC3
:100950003C9101C0660F3A95EAF7622B6083B8CFED
:10096000FC01EF58FF4F0190F081E02D4081DC0148
:10097000A259BF4F5C9121E030E001C0220F5A958F
:10098000EAF7209524232083A3CF6115710509F48C
:100990004BC061307105B1F1FC01EF58FF4F019080
:1009A000F081E02D4081DC01A259BF4F5C9121E034
:1009B00030E0B90101C0660F5A95EAF7462B408333
:1009C000FC01E558FF4F0190F081E02D40811A961F
:1009D0005C91B90101C0660F5A95EAF7462B408336
:1009E000FC01E058FF4F0190F081E02D40818358D9
:1009F0009F4FDC018C9101C0220F8A95EAF7242BCE
:100A000020830895FC01EA58FF4F0190F081E02D0A
:100A10002081DC01AD58BF4F3C9101C0660F3A9573
:100A2000EAF7622B6083B8CFFC01EA58FF4F0190D0
:100A3000F081E02D4081DC01AD58BF4F5C9121E099
:100A400030E001C0220F5A95EAF720952423208335
:100A5000A3CF6115710509F44BC061307105B1F187
:100A6000FC01EF58FF4F0190F081E02D4081DC0147
:100A7000A259BF4F5C9121E030E0B90101C0660F7F
:100A80005A95EAF7462B4083FC01EA58FF4F019044
:100A9000F081E02D408115965C91B90101C0660F8F
:100AA0005A95EAF7462B4083FC01E058FF4F01902E
:100AB000F081E02D408183589F4FDC018C9101C073
:100AC000220F8A95EAF7242B20830895FC01E5582C
:100AD000FF4F0190F081E02D2081DC01A858BF4F2D
:100AE0003C9101C0660F3A95EAF7622B6083B8CF5C
:100AF000FC01E558FF4F0190F081E02D4081DC01C1
:100B0000A858BF4F5C9121E030E001C0220F5A95F8
:100B1000EAF7209524232083A3CF6115710509F4FA
:100B20004BC061307105B1F1FC01EF58FF4F0190EE
:100B3000F081E02D4081DC01A259BF4F5C9121E0A2
:100B400030E0B90101C0660F5A95EAF7462B4083A1
:100B5000FC01EA58FF4F0190F081E02D408115968D
:100B60005C91B90101C0660F5A95EAF7462B4083A4
:100B7000FC01E558FF4F0190F081E02D408188583D
:100B80009F4FDC018C9101C0220F8A95EAF7242B3C
:100B900020830895FC01E058FF4F0190F081E02D83
:100BA0002081DC01A358BF4F3C9101C0660F3A95EC
:100BB000EAF7622B6083B8CFFC01E058FF4F019049
:100BC000F081E02D4081DC01A358BF4F5C9121E012
:100BD00030E001C0220F5A95EAF7209524232083A4
:100BE000A3CFFC01EF58FF4F0190F081E02D408131
:100BF000DC01A259BF4F5C9121E030E0B90101C096
:100C0000660F5A95EAF7462B4083FC01EA58FF4FDE
:100C10000190F081E02D408115965C91B90101C0F1
:100C2000660F5A95EAF7462B4083FC01E558FF4FC3
:100C30000190F081E02D408115965C91B90101C0D1
:100C4000660F5A95EAF7462B4083FC01E058FF4FA8
:100C50000190F081E02D408183589F4FDC018C9101
:100C600001C0220F8A95EAF7242B2083089561158D
:100C70007105B9F06130710509F00895FC01E4597E
:100C8000FF4F0190F081E02D208187599F4FDC01BB
:100C90008C9101C0660F8A95EAF7609562236083A4
:100CA0000895FC01E459FF4F0190F081E02D20816F
:100CB00087599F4FDC013C9181E090E001C0880F93
:100CC0003A95EAF7822B80830895EF92FF920F9373
:100CD0001F93CF93DF936A3080F4E62FF0E0ED5856
:100CE000F94F0C946A0AD70600072A0754077E07B3
:100CF000A807D207FC078406AD06DF91CF911F91AC
:100D00000F91FF90EF900895FC01F896AC014E57BB
:100D10005F4F7C01D0E9ED0EF11C8C01015C1F4F8F
:100D200061E070E006C09C91292B2C93E017F1073D
:100D300021F39191EA01A991B991AE01E70189915D
:100D40007E019B0101C0220F8A95EAF7992359F38E
:100D50008C91209528232C93E9CFFC01FF96AC01C0
:100D60004E575F4F7C01D0E9ED0EF11C8C010A5B00
:100D70001F4F61E070E007C09C91292B2C93E01776
:100D8000F10709F4BACF9191EA01A991B991AE01A5
:100D9000E70189917E019B0101C0220F8A95EAF744
:100DA000992351F38C91209528232C93E8CFFC01B3
:100DB0008E579F4F7F0120E9E20EF11C8F01095FE2
:100DC0001F4F61E070E006C0232B2C930E171F0706
:100DD00009F493CF4191EC01A991B991CE01E701BA
:100DE00029917E01EB0102C0CC0FDD1F2A95E2F7AD
:100DF0009E013C91442341F3209523232C93E6CF7D
:100E0000FC013796AC014E575F4F7C01D0E9ED0EE7
:100E1000F11C8C01025F1F4F61E070E007C09C91E4
:100E2000292B2C93E017F10709F467CF9191EA0180
:100E3000A991B991AE01E70189917E019B0101C0A1
:100E4000220F8A95EAF7992351F38C912095282354
:100E50002C93E8CFFC013E96AC014E575F4F7C01CE
:100E6000D0E9ED0EF11C8C010B5E1F4F61E070E0CC
:100E700007C09C91292B2C930E171F0709F43DCF17
:100E80009191EA01A991B991AE01E70189917E01A1
:100E90009B0101C0220F8A95EAF7992351F38C91A7
:100EA000209528232C93E8CFFC017596AC014E5772
:100EB0005F4F7C01D0E9ED0EF11C8C01045E1F4FE9
:100EC00061E070E007C09C91292B2C930E171F073F
:100ED00009F413CF9191EA01A991B991AE01E7010B
:100EE00089917E019B0101C0220F8A95EAF799231F
:100EF00051F38C91209528232C93E8CFFC017C960C
:100F0000AC014E575F4F7C01D0E9ED0EF11C8C0116
:100F10000D5D1F4F61E070E007C09C91292B2C9361
:100F20000E171F0709F4E9CE9191EA01A991B99131
:100F3000AE01E70189917E019B0101C0220F8A95D4
:100F4000EAF7992351F38C91209528232C93E8CF2D
:100F5000FC01B396AC014E575F4F7C01D0E9ED0E1A
:100F6000F11C8C01065D1F4F61E070E007C09C9191
:100F7000292B2C930E171F0709F4BFCE9191EA017C
:100F8000A991B991AE01E70189917E019B0101C050
:100F9000220F8A95EAF7992351F38C912095282303
:100FA0002C93E8CFFC01BA96AC014E575F4F7C0101
:100FB000D0E9ED0EF11C8C010F5C1F4F61E070E079
:100FC00007C09C91292B2C930E171F0709F495CE6F
:100FD0009191EA01A991B991AE01E70189917E0150
:100FE0009B0101C0220F8A95EAF7992351F38C9156
:100FF000209528232C93E8CFFC01F196AC014E57A5
:101000005F4F7C01D0E9ED0EF11C8C01085C1F4F95
:1010100061E070E007C09C91292B2C930E171F07ED
:1010200009F46BCE9191EA01A991B991AE01E70162
:1010300089917E019B0101C0220F8A95EAF79923CD
:1010400051F38C91209528232C93E8CFCF93DF93F5
:10105000FC01EE57FF4FEC01C057DF4FBE0141E0EE
:1010600050E0A191B1918C9199919A0101C0220F08
:101070009A95EAF7209528232C93E617F70789F726
:10108000DF91CF9108958DE591E00E949B038DE55E
:1010900091E00E94F1058CE491E00E9400028091B1
:1010A000810088608093810080ED93E090938900B7
:1010B0008093880080916F00826080936F007894A5
:1010C00080918100856080938100809168008160BB
:1010D0008093680080916B00846080936B000FB6F2
:1010E000F894A895809160008861809360001092C8
:1010F00060000FBE389A80B7806880BF80917A0008
:101100008F7780937A0003E010E084E0C82ED12C22
:10111000C1E0D0E092E0E92EF12C8CE491E00E9455
:101120003A025C018091F4019091F50182309105C1
:1011300009F49AC0C8F5009709F466C0019769F7E9
:101140008091010190910201019789F08FE996E861
:1011500021E0815090402040E1F700C000008091E4
:10116000F4019091F50190930201809301010E9496
:101170005001A114B10409F42BC1AA94AB2809F4BD
:101180003FC18091030190910401892B31F6D093E6
:101190000401C0930301D0930201C0930101F092B6
:1011A000F501E092F401B9CF8330910509F495C0BF
:1011B0008430910509F0B1CF409A2FE53AEE40E036
:1011C000215030404040E1F700C0000040982FE936
:1011D00036E841E0215030404040E1F700C00000D7
:1011E0002091030130910401232B09F096CFD09375
:1011F0000401C093030190930201809301011092B6
:10120000F5011092F40189CF609101017091020102
:1012100061157105A9F08DE591E00E9465062FE941
:1012200036E841E0215030404040E1F700C0000086
:101230008091F4019091F501909302018093010156
:101240000E9450010E949401809103019091040139
:10125000892B09F062CFD0930401C0930301D0938E
:10126000F501C093F40159CF8091010190910201E1
:10127000029789F04FE986E891E041508040904024
:10128000E1F700C000008091F4019091F501909386
:101290000201809301010E949401A114B10409F498
:1012A0008BC0AA94AB2809F49FC080910301909150
:1012B0000401892B09F031CFD0930401C0930301BD
:1012C000F0920201E09201011093F5010093F40104
:1012D000D093F701C093F60120CF80910101909146
:1012E0000201039789F03FE946E881E03150404030
:1012F0008040E1F700C000008091F4019091F50179
:1013000090930201809301010E9450010E94940178
:101310004BEF51E06CEF71E08DEF91E00E94220104
:101320006AEF71E08BEF91E00E940201809103016E
:1013300090910401892BC9F4D0930401C093030157
:1013400010930201009301011092F5011092F40133
:101350001092F7011092F6011092FD011092FC011B
:101360001092FB011092FA01D8CE2091FA018091DF
:10137000FB01082E000C990B820F911D27FD9A95F9
:101380002091FC01820F911D27FD9A952091FD016E
:10139000820F911D27FD9A95892B09F0BECE1093DF
:1013A000020100930101D092F501C092F401109264
:1013B000F7011092F601B1CE8091FD018F5F80930D
:1013C000FD016CEF71E08DEF91E00E940201A5CE6E
:1013D0008091FB018F5F8093FB016AEF71E08BEFDF
:1013E00091E00E94020199CE8091FD01815080938D
:1013F000FD016CEF71E08DEF91E00E9402018DCE56
:101400008091FB0181508093FB016AEF71E08BEFCB
:1014100091E00E94020181CE8F929F92AF92CF9273
:10142000DF92EF92FF920F931F931F9297E29F9389
:1014300081E08F931F9234E23F931F921F928AE2C2
:101440008F9327E02F931F923F932F931F929F9389
:1014500024E02F931F929F9392E09F931F928F936C
:1014600026E02F931F928F939F9387E2882E912CD3
:1014700095E0A92E27E2C22ED12C33E0E32E04E220
:1014800010E021E04AE250E065E08DE591E00E9445
:101490006F0243E0C42E5AE2E52EF12C04E02AE26A
:1014A00030E042E064E270E08CE491E00E94EC0104
:1014B0008DB79EB748960FB6F8949EBF0FBE8DBFEE
:1014C0001F910F91FF90EF90DF90CF90AF909F9082
:1014D0008F900895EE0FFF1F0590F491E02D099471
:0414E000F894FFCFAE
:1014E40001040001000000000000000101000001EF
:1014F40001010100000100000100000000000101E1
:1015040000010000010100000001000001000000D2
:1015140001000000000000000001010101000000C2
:0C152400000000000000000101000000B9
:00000001FF
